:0400000002001132B7
:03000B0002006D83
:03006A0002000E83
:03000E000200AA43
:20006D00C0E0C007C0D075D000758CD8758AEFE5097010E50825E0F5087480B508137509D1
:20008D0001800EE508C313F5087401B50803750900E508F4F590D0D0D007D0E032C28C75CF
:1600AD008901D2AFD2A9758CD8758AEFD28C75080175090080FE18
:06004000E478FFF6D8FD94
:20001E007900E94400601B7A009000C7780175A000E493F2A308B8000205A0D9F4DAF275C1
:02003E00A0FF21
:200046007800E84400600A790175A000E4F309D8FC7800E84400600C7900900001E4F0A3B8
:04006600D8FCD9FAEF
:0D0011007581091200C3E582600302000E34
:0400C3007582002220
:00000001FF
