:0400000002001132B7
:03000B00020114DB
:03006A0002000E83
:03000E0002016F7D
:20006D0075807720860475820122208504758202222084047582032275807B2086047582AA
:20008D00042220850475820522208404758206227580FD208604758207222085047582083B
:2000AD0022208404758209227580FE2085047582002275820A22E582FF24F64049EF240A49
:2000CD0083F582EF240E83F583E473ECF0F4F8FC0004080C10000000000001010101017540
:2000ED0090C0227590F9227590A4227590B0227590992275909222759082227590F8227509
:20010D0090802275909022C020C0E0C0F0C082C083C007C006C005C004C003C002C001C018
:20012D0000C0D075D000758C00758AC012006D858208740AB50802800AD28785088212004E
:20014D00C38002C287D0D0D000D001D002D003D004D005D006D007D083D082D0F0D0E0D0E3
:18016D002032758901D2AFD2A9758C00758AC0D28CC28775B00080FE23
:06004000E478FFF6D8FD94
:20001E007900E94400601B7A00900189780175A000E493F2A308B8000205A0D9F4DAF275FE
:02003E00A0FF21
:200046007800E84400600A790175A000E4F309D8FC7800E84400600C7900900001E4F0A3B8
:04006600D8FCD9FAEF
:0D001100758120120185E582600302000E5A
:04018500758200225D
:00000001FF
