:03000000020006F5
:03005F0002000399
:0300030002006296
:20006200D287750800750900750A00750B007F2ABF0A00400BEF24F6FFE50904F50980F006
:200082008F087F03EF2408F9E760048F0680031F80F27F008FB0EF2408F9E7FD24F64052DB
:2000A200ED240A83F582ED240E83F583E473C4C9CED3D8DDE2E7ECF100000000000000002F
:2000C20000007590C0802B7590F980267590A48021759061801C7590998017759092801260
:2000E200759082800D7590F8800875908080037590900F8E047D000CBC00010D8F027B00C8
:1A010200EAB50406EBB505027F00D2878F05EDC40354F8F5B0C2870200989F
:06003500E478FFF6D8FD9F
:200013007900E94400601B7A00900120780175A000E493F2A308B8000205A0D9F4DAF27572
:02003300A0FF2C
:20003B007800E84400600A790175A000E4F309D8FC7800E84400600C7900900001E4F0A3C3
:04005B00D8FCD9FAFA
:0D00060075810B12011CE5826003020003EE
:04011C0075820022C6
:00000001FF
