:03000000020006F5
:03005F0002000399
:0300030002006296
:2000620075B0007580777F002086047F01800C2085047F0280052084027F0375807B2086CB
:20008200047F04800C2085047F0580052084027F067580FD2086047F07800C2085047F0890
:2000A20080052084027F097580FE2085027F00EF240A83F582EF240E83F583E473D3D8DD60
:2000C200E2E7ECF1F6FB00000000000000000000017590C080D97590F980D47590A480CF1E
:2000E20075906180CA75909980C575909280C075908280BB7590F880B675908080B17590E4
:030102009080AC3E
:06003500E478FFF6D8FD9F
:200013007900E94400601B7A00900109780175A000E493F2A308B8000205A0D9F4DAF27589
:02003300A0FF2C
:20003B007800E84400600A790175A000E4F309D8FC7800E84400600C7900900001E4F0A3C3
:04005B00D8FCD9FAFA
:0D000600758107120105E582600302000309
:0401050075820022DD
:00000001FF
