:03000000020006F5
:03005F0002000399
:0300030002010CEB
:200062007F0A7580772086047F01800C2085047F0280052084027F0375807B2086047F045F
:20008200800C2085047F0580052084027F0675807D2086047F07800C2085047F08800520F2
:2000A20084027F0975807E2085027F008F8222E582FFC40354F8F5B0E50C24F6404BE50CBF
:2000C200240B83F582E50C240E83F583E473E4E8ECF0F4F8FC0004080000000000000001E3
:2000E20001017590C0227590F9227590A4227590B02275909922759092227590822275902C
:20010200F82275908022759090227F007E00C007C006120062AD82D006D007EF7010BD0A55
:200122000280107F01EE2408F8A6050E8005BD0A027F00BE04D8C2877F00EF2408F9870C0A
:150142008F82C0071200B1D007D2870FBF04027F00C28780E5DC
:06003500E478FFF6D8FD9F
:200013007900E94400601B7A0090015B780175A000E493F2A308B8000205A0D9F4DAF27537
:02003300A0FF2C
:20003B007800E84400600A790175A000E4F309D8FC7800E84400600C7900900001E4F0A3C3
:04005B00D8FCD9FAFA
:0D00060075810C120157E5826003020003B2
:04015700758200228B
:00000001FF
